:020000040000FA
:10000000304F0020C9200000255800005920000072
:1000100059200000592000005920000059200000FC
:10002000592000005920000059200000E11F000065
:1000300059200000592000008D1F0000FD570000CE
:10004000A1200000A1200000A1200000A1200000AC
:10005000A1200000A1200000A1200000A12000009C
:10006000A1200000A1200000A1200000A12000008C
:10007000A1200000A1200000A1200000A12000007C
:10008000A1200000A1200000A1200000A12000006C
:10009000A1200000A1200000A1200000A12000005C
:1000A000A1200000A1200000A1200000A12000004C
:1000B000A1200000A1200000A1200000A12000003C
:1000C000A1200000A1200000A1200000A12000002C
:1000D000A1200000A1200000A1200000A12000001C
:1000E000A1200000A1200000A1200000A12000000C
:1000F000A1200000A1200000A1200000A1200000FC
:10010000A1200000A1200000A1200000A1200000EB
:10011000A1200000A1200000A1200000A1200000DB
:10012000A1200000A1200000A1200000A1200000CB
:10013000A1200000A1200000A1200000A1200000BB
:10014000A120000053B94AB9002908BF00281CBFEC
:100150004FF0FF314FF0FF3000F070B9ADF1080CF7
:100160006DE904CE00F006F8DDF804E0DDE90223D5
:1001700004B070472DE9F047089E0D4604468A46B4
:10018000002B7FD18A42174641D9B2FA82F24AB196
:10019000C2F1200105FA02F39740944020FA01F1E0
:1001A00041EA030A4FEA17484FEA144C1FFA87F94D
:1001B000BAFBF8FE08FB1EA30EFB09F14CEA034351
:1001C000994206D9FB1802D2994200F224810EF11D
:1001D000FF3E591AA3B2B1FBF8F008FB101100FB67
:1001E00009F943EA0144A14505D93C1902D2A145C8
:1001F00000F20E810138A4EB090440EA0E40002110
:100200001EB1D4400023C6E90043BDE8F08702B91F
:10021000FFDEB2FA82F2002A4FD1CB1B4FEA174E13
:100220001FFA87F80121250CB3FBFEFC0EFB1C30E6
:100230002B4608FB0CF945EA0045A9450AD97D196A
:100240002CBF01230023A94502D9002B00F0D9803F
:100250000CF1FF3CA5EB0905A3B2B5FBFEF00EFBCC
:10026000105508FB00F843EA0544A04505D93C19A0
:1002700002D2A04500F2C9800138A4EB080440EA8C
:100280000C40BDE78B4208D9002E00F0B180002160
:10029000C6E900050846BDE8F087B3FA83F10029F6
:1002A00046D1AB42C0F0A780824240F2A48008460B
:1002B000002EAAD0C6E9004AA7E7C2F12000974065
:1002C00001FA02F34FEA174EC14024FA00F51FFA73
:1002D00087F894401D43B1FBFEF02B0C0EFB101170
:1002E00000FB08FC43EA01439C4509D9FB182CBFDD
:1002F000012100219C4502D9002900F09580013898
:10030000A3EB0C03ADB2B3FBFEF10EFB113301FB0B
:1003100008FC45EA0345AC4505D97D1902D2AC4538
:1003200000F289800139A5EB0C0341EA00417AE72C
:10033000C1F120048B4002FA01F705FA01FCE2400A
:1003400020FA04F8E54000FA01FE134348EA0C02E3
:100350004FEA13484FEA124C1FFA83F9B5FBF8FA3B
:1003600008FB1A550AFB09F04CEA054C60450AD90E
:1003700013EB0C0C2CBF01250025604501D9002D85
:1003800055D00AF1FF3AACEB000C92B2BCFBF8F08E
:1003900008FB10CC00FB09F942EA0C4CE14505D9F9
:1003A00013EB0C0C01D2E1453BD8013840EA0A407E
:1003B000ACEB090CA0FB0789CC4545464A4602D365
:1003C00006D1C64504D20138B8EB070569EB030234
:1003D0002EB3BEEB05036CEB020C23FA01F20CFA10
:1003E00004F42CFA01F300211443C6E900430CE79E
:1003F0003146304609E7841A65EB030301209A462B
:1004000056E7ACF1020C3D4424E702383C4434E7A3
:1004100002383C44EFE6AEF1020E3B44D9E63146E9
:10042000F3E602389C44C1E702383B4468E7AAF18E
:10043000020A9C44A7E702393D4474E7704700BFB5
:1004400030B585B04FF00000032363F302006FF373
:10045000C500324B324A9B1AC3F3C90363F38F10B2
:10046000304904F011FF00F09BF82F4800F068F8C5
:10047000A8B101A800F040FB10B34FF00000012329
:1004800063F302006FF3C500244B254A9B1AC3F3A4
:10049000C90363F38F10254904F0F6FEFEE701233C
:1004A00063F302006FF3C5001C4B1D4A9B1AC3F394
:1004B000C90363F38F101C4A1D4904F0E5FEFEE7F3
:1004C00003254FF0000065F302006FF3C500134CE5
:1004D000134BE41AC4F3C90464F38F10039A15494B
:1004E00004F0D2FE4FF0000065F302006FF3C50088
:1004F00064F38F10104904F0C7FE01A803F022FF37
:100500004FF00000012363F302006FF3C50064F3B2
:100510008F100A4904F0B8FEFEE700BFCC7D000052
:10052000C47D0000147E0000287E0000587E00007C
:100530003C7E0000787E0000A47E0000C47E0000A7
:1005400008B5054B1B6813B1034B186808BD03F0D1
:10055000B3FC014B1860F7E70800002010B9002039
:100560000860704708B502464FF00000012363F3AE
:1005700002006FF3C500074B07495B1AC3F3C903B9
:1005800063F38F100023054904F07EFE6FF0150021
:1005900008BD00BFCC7D0000C47D0000E47E0000EB
:1005A00008B54FF4C051024802F0B4FD08BD00BFC9
:1005B0000C00002002680E4B9A420DD1C2680389DC
:1005C000D84382420CD810B4D418012010B18B68E3
:1005D000A34203D910BC7047002070470020F9E700
:1005E000002010B18B68A34200D9704700207047EB
:1005F0003DB8F39600B587B01346002004900390F1
:1006000002904FF480720192054A00920A46014618
:1006100000F0B6FE10B907B05DF804FB0320FAE75E
:100620006C2400202DE9F04182B006460C461546A8
:10063000002003F0A5FE01A9C0B201F027FB28B1FC
:100640004FF0FF35284602B0BDE8F0812C2000FBBA
:1006500004672146304603F00FFF88B33B6913F06F
:10066000100F32D1DDF8048041463846FFF7A2FF73
:10067000A8B9ECB94FF00000012363F302006FF357
:10068000C500134B134A9B1AC3F3C90363F38F10BE
:10069000A4B9114A114904F0F7FD012511E02B46D8
:1006A000424639463046FFF7A5FF054648B1E0E728
:1006B00001988268002104F02EFFDBE7084AE9E791
:1006C0000125019804F0D7FEBCE70125F9E700BF3A
:1006D000CC7D0000C47D0000207F0000287F00004A
:1006E000147F000030B583B005460C46002300930C
:1006F0000193084603F05FFF30B32A681F4B9A420C
:1007000016D0EA6A1D4B9A4218D0019B009A934278
:1007100000D90093009BA360009A2146284600F070
:1007200093FC174B1A68002A16DC002003B030BD7A
:100730006A460021284603F048FEE2E701AA0121AB
:10074000284603F042FEE0E704F10801002004F02F
:1007500062F9A3680093DFE74FF00000022363F320
:1007600002006FF3C500074B07495B1AC3F3C903C7
:1007700063F38F10054904F087FDD6E73DB8F39683
:100780006C250020CC7D0000C47D00004C7F000063
:1007900038B504460D46FFF7A5FF0246EB7984F80D
:1007A0005830033BDBB2012B0CD9EB79022B13D071
:1007B000042B11D0032B0FD094F85830FF2B15D0F9
:1007C000104638BD002004F005F802460028ECD0A1
:1007D000FF2384F85830E8E7002003F0E8FF0246E2
:1007E0000028E9D0FF2384F85830E5E74FF00000F7
:1007F000012363F302006FF3C500054B054A9B1A02
:10080000C3F3C90363F38F10034904F03DFDFEE712
:10081000CC7D0000C47D0000787F000038B5044620
:100820000D4603F071FE68B900221146204603F020
:1008300081FEE8B9204600F0E1FA78BB012384F894
:10084000583014E04FF00000022363F302006FF30E
:10085000C500474B474A9B1AC3F3C90363F38F1084
:100860008022454904F010FD012384F8583038BD3A
:100870004FF00000022363F302006FF3C5003C4B0E
:100880003C4A9B1AC3F3C90363F38F1000223B4910
:1008900004F0FAFC012384F85830E8E7284603F016
:1008A00080FE2946204603F049FFE8B9284603F0B8
:1008B00082FE80F001012A46C9B2204603F03AFECA
:1008C00040BB284603F077FE002839D0EB79012B96
:1008D00043D02A4601212046FFF7A4FE002843D03A
:1008E000052384F85830C2E74FF00000022363F379
:1008F00002006FF3C5001E4B1E4A9B1AC3F3C903C7
:1009000063F38F1000221E4904F0BEFC012384F81B
:100910005830ACE74FF00000022363F302006FF39E
:10092000C500134B134A9B1AC3F3C90363F38F101B
:100930000022124904F0A8FC012384F8583096E7FD
:1009400029462046FFF724FF2A460021204603F0CF
:10095000F1FD012384F8583089E72946204603F049
:1009600004FE84F8580082E7EB7984F858307EE77B
:10097000CC7D0000C47D0000807F0000C07F0000AF
:10098000E87F00002DE9F84F884691461F46DDF8C4
:1009900028A00B9E00250FE023460F4AE919404688
:1009A00004F06AFDA0B923460B4A05EB0A0148464C
:1009B00004F081FD70B92544B54206D2741BB4F52C
:1009C000806FE9D94FF48064E6E70020BDE8F88F36
:1009D0000120FBE70120F9E76C18002070B584B016
:1009E00004460D466022002104F0C5FF3D4B6362C2
:1009F0003D4B236500260CE03146002003F0C0FC8F
:100A00002C2101FB06F120312144C0B201F03EF956
:100A10000136012EF0D969462046FFF7FFFE94F813
:100A200058308DF80730042B25D8022B2ED2012BFD
:100A300031D194F85830FF2B31D0012B06D06A46C3
:100A40000021204603F076FD064690B900221146AB
:100A50002046FFF7E7FD064698BB102200216846B6
:100A600004F089FF236A5B782B71236A5B68AB60B3
:100A70002C60002530E0052B0DD1002003F0AAFEEC
:100A80000028D6D0FF2384F85830D2E769462046A4
:100A900003F0A2FDCDE7FF2384F85830C9E74FF0FB
:100AA0000000012363F302006FF3C5000F4B104AEF
:100AB0009B1AC3F3C90363F38F100E4904F0E4FBE0
:100AC000FEE70326D5E7C5F101032C2202FB034311
:100AD000186A04F0D0FC0135012DF4D9304604B079
:100AE00070BD00BF6C1C00206C200020CC7D00007D
:100AF000C47D0000787F000008B501460148FFF77B
:100B00006DFF08BD0C1800202DE9F04383B00F469F
:100B100015461C46DDF82880536A53F830601A6881
:100B2000B61A013853F83030A3EB02092368012BC1
:100B30001BD03A463146404603F0A2FD019700968D
:100B40004B46424641462846FFF71CFF21462846B1
:100B500003F063FD23680133236018B10C4A136866
:100B60000133136003B0BDE8F083E368022B04D1C6
:100B70000B99284603F088FDDBE74146284603F041
:100B800083FD22464146284603F0B6FDF0E700BF4C
:100B90006C2500202DE9F04383B00E4615461C4617
:100BA000526A52F830101368A1EB0308013852F86A
:100BB0003070FF1A2A6D52F830101368A1EB030948
:100BC0002379012B05D02379022B1CD003B0BDE87B
:100BD000F083324639460A9803F052FD0196009799
:100BE0004B460A9A0B992846FFF7CCFE2146284629
:100BF00003F013FD022323710028E4D0114A136887
:100C000001331360DFE7324649460B9803F038FDA5
:100C10000196CDF8009043460B9A0A992846FFF7B3
:100C2000B1FE2146284603F0F8FC23680133236017
:100C3000012323710028C9D0024A136801331360CD
:100C4000C4E700BF6C25002070B582B015461E4673
:100C5000002B36D0436A5C687379012B11D0022BCC
:100C600017D00024002003F08BFB01A9C0B201F0D3
:100C70000DF868B30124019804F0FDFB204602B092
:100C800070BD01BB32681C4B1B689A42EAD8002435
:100C9000E8E73368012B07D9174A1268934203D853
:100CA00099B900240121DDE7012B01D00024D9E707
:100CB00001B100240129D5D13379022BD2D10021F1
:100CC000D0E70024CEE70024CCE700242146C9E782
:100CD00020232A462146019804F0CEFB044640B961
:100CE000002EC8D02A68054B9A42C4D04FF0FF347A
:100CF000C1E70124BFE700BF305700203DB8F3969D
:100D00002DE9F04F85B006460D46019201460020C0
:100D100003F0F2FD041E62DBD5F85CA0304603F060
:100D2000F9FD81464FF0000B01274FF0FF3805E039
:100D3000874201D00BF1010B2C460746002C13DD36
:100D4000651E5FFA8AF101230DF10F0205FB019187
:100D5000304603F021FB002843DB0128E8D0B8F13E
:100D6000FF3FE9D1A046E7E7BBF1010F0EDCB8F188
:100D7000FF3F3AD0B8F17F0F1ADC012301994B7184
:100D800008EB03020A600B7100202BE04FF000001B
:100D9000012363F302006FF3C500154B154A9B1A3C
:100DA000C3F3C90363F38F10134904F06DFADEE750
:100DB0000223019A5371A8F1800808EBD8735B10E5
:100DC00001331360B8F1000F08F00108B8BFC8F193
:100DD000000808F1010882F80480002002E00720E2
:100DE00000E0012005B0BDE8F08F0020FAE700BF69
:100DF000CC7D0000C47D00001080000010B5846A26
:100E0000436D9C4210D1802C21D80023A34244D2B0
:100E1000426A02EBC3025168026D02EBC3025268E0
:100E20008A4227D10133F1E74FF00000022363F338
:100E300002006FF3C5001A4B1A4A9B1AC3F3C90389
:100E400063F38F10184904F01FFA002010BD4FF013
:100E50000000022363F302006FF3C500104B114A38
:100E60009B1AC3F3C90363F38F10104904F00CFA03
:100E70000020EBE74FF00000022363F302006FF362
:100E8000C500074B074A9B1AC3F3C90363F38F10CE
:100E9000074904F0F9F90020D8E70120D6E700BFA0
:100EA000CC7D0000C47D0000308000006880000020
:100EB0009480000010B586B004A9022003F096FDCE
:100EC0004FF00000032363F302006FF3C500264BCD
:100ED000264A9B1AC3F3C90363F38F109DF81030A1
:100EE000012B2DD0032B29D0214B9DF811209DF8EB
:100EF00012109DF813400294019100921D4A1E4960
:100F000004F0C2F99DF81030012B03D19DF8123086
:100F1000032B17D04FF00000032363F302006FF39D
:100F2000C500114B114A9B1AC3F3C90363F38F1019
:100F3000124904F0A9F9002006B010BD104BD4E707
:100F4000104BD2E74FF0000063F302006FF3C500CF
:100F5000054B064A9B1AC3F3C90363F38F100A4972
:100F600004F092F90220E7E7CC7D0000C47D000088
:100F7000BC800000D0800000E080000038810000CC
:100F8000C8800000C08000001C810000F0B587B060
:100F90000C46496801F0FF21234DA94204D10646C1
:100FA00017462268012A01D007B0F0BD04A91846EF
:100FB00003F01CFD4FF00000032363F302006FF306
:100FC000C5001A4B1A4A9B1AC3F3C90363F38F1067
:100FD0009DF81030012B24D0032B20D0154B9DF809
:100FE00011209DF812109DF8135002950191009266
:100FF000114A124904F048F99DF81030032BD3D15F
:101000003946304603F040FB384603F026FDA16820
:10101000384603F03BFD384600F0E2F8C4E7084BE1
:10102000DDE7084BDBE700BF00010004CC7D0000DA
:10103000C47D0000BC8000004C810000E080000006
:10104000C8800000C0800000F0B585B007460D469E
:1010500000243E4B1C60436A5E6834443B490B6885
:1010600001330B609442F8D3284603F0A4FA70B120
:10107000F86D03F03CFCBA6A013A0023334498420D
:1010800001D9013AFAE7314B1B68934214D203A904
:10109000022000F0FBFD02A9062000F0F7FD062368
:1010A000029A29463846FFF771FF6B79012B17D05A
:1010B00002236B71012438E04FF00000022363F338
:1010C00002006FF3C500224B224A9B1AC3F3C903E7
:1010D00063F38F10204904F0D7F80123EB7132E05D
:1010E0001A4B1C680AE0029B0193039B00932B465A
:1010F0003A4631462046FFF707FD013C3CB12A68DD
:10110000124B1B689B1A01339C42F6D8EBE7012374
:101110002B60CDE7029B0193039B00932B463A463D
:1011200031462046FFF736FD0134084B1B68A342C9
:1011300003D32B68A342F7D8ECE7039804F09BF99C
:10114000029804F098F905B0F0BD00BF30570020B8
:10115000CC7D0000C47D00005C81000008B5102239
:10116000034904F0CDFB08B1022008BD0120FCE7D3
:10117000D481000070B586B00D460223ADF804306E
:10118000002407E0286804F076F923E0286804F0DA
:1011900072F90134012C1BD8294606AB234413F8FD
:1011A000140C00F073FD0646A0B92868816810236E
:1011B00002AA103904F060F906460028E2D1102294
:1011C000064902A804F09CFB06460028DED101E097
:1011D0004FF0FF36304606B070BD00BFD48100002E
:1011E00008B581681023044A103904F064F900B985
:1011F00008BD0120FCE700BFD481000030B585B0F8
:1012000002A9022003F0F2FB00286ED169460620F5
:1012100003F0ECFB00286AD1002407E02B79042BB3
:1012200029D09DF80A20934225D00134022C48D8B9
:1012300004EB44032F4A02EB43059DF8081012F813
:10124000130003F041FB0028EFD09DF800106878F0
:1012500003F03AFB0028E8D0AB78042B03D09DF8CC
:101260000B209342E1D1EB78042BD7D09DF80320DB
:101270009342DAD1D2E74FF00000032363F3020078
:101280006FF3C5001C4B1D4A9B1AC3F3C90363F3DC
:101290008F106B79022B07D0032B10D0042B01D0B9
:1012A000174A02E0174A00E0174A184903F0ECFF1A
:1012B0006879831EDBB2022B15D9FF2013E0144A94
:1012C000F3E74FF00000032363F302006FF3C50060
:1012D000094B0A4A9B1AC3F3C90363F38F100D49E4
:1012E00003F0D2FF012005B030BDFF20FBE7FF2057
:1012F000F9E700BFE4810000CC7D0000C47D000060
:1013000098810000AC81000088810000B481000059
:1013100090810000C481000070B5A4B0202928D8B5
:1013200006460D460024144B1B68A3421CDD09A889
:1013300006F0EFF9002109A802F018F80F4B03EBB3
:10134000C4025268126853F8341009A806F0E7F98D
:1013500001A909A806F026FA2A46314601A804F098
:10136000CFFA18B10134DEE74FF0FF34204624B045
:1013700070BD4FF0FF34F9E7087F00000C7F0000DC
:101380002DE9F041D6B014461D465F9E04965E9E40
:10139000039606AE02965D9E01965C9E009603F053
:1013A00085FB0646002840F08280609B23B1202206
:1013B00006A9184604F0BBFA002300934FF6FF730A
:1013C0002A4621464EA803F034FC064600286ED17A
:1013D000074680464FF0FF341DE04FF0FF341AE01F
:1013E0004FF0FF3417E04FF0FF34012713E0BDF852
:1013F0005231202B5FD10EAA5599284604F03CF8B3
:1014000000285BD120220EA906A804F079FA002852
:1014100056D14FF0010854AB0DF5A97255A94EA84D
:1014200003F06CFC002840DB38DCBDF85021102AAA
:10143000DDD0012A21D0202AEDD1002CCDDB294B93
:101440001B68A342CCDDBDF85231B3F5807F3FD19C
:101450000EAA5599284604F00FF800283BD1E4B2B3
:101460000094BDF852310EAA202106A800F0AEF873
:101470000028B8D04FF0FF34CDE7BDF85231202B13
:1014800021D80EAA5599284603F0F6FFF0B99DF829
:1014900052110EA8FFF740FF0446BCE7B8F1000F59
:1014A0001CD027B94FF0FF3601E04FF0FF36304631
:1014B00056B0BDE8F0814FF0FF36F8E70646F6E794
:1014C0004FF0FF36F3E74FF0FF36F0E70646EEE762
:1014D0004FF0FF36EBE74FF0FF36E8E74FF0FF360F
:1014E000E5E700BF087F000070B5ADF51C7D0E4636
:1014F00019464368B3F5807F51D1202A52D141AAC1
:1015000001F0F2FE054600284FD19DF80332BC2BB6
:101510004ED10DF2E31109A803F059FB2B46DE2B47
:1015200007DC41AAD25C09A8C45C6240C254013302
:10153000F5E79DF8243003F07F038DF82430BD2DAE
:1015400004DC09AB5B5DB3BB0135F8E79DF8E23025
:10155000012B35D181A806F0DCF8002181A801F02B
:1015600005FF0822184981A806F0D9F82022314643
:1015700081A806F0D4F820220DF1E30181A806F03D
:10158000CEF801A981A806F00DF920220DF2E31191
:1015900001A804F0B5F980B14FF0FF300DE04FF035
:1015A000FF300AE04FF0FF3007E04FF0FF3004E07B
:1015B0004FF0FF3001E04FF0FF300DF51C7D70BDA6
:1015C0004FF0FF30F9E700BFF88100002DE9F0434C
:1015D000ADB006460F4690461D469DF8D0900022BD
:1015E000114601A806F04FF8114C54F83930009319
:1015F00004EBC904626812681A44694601A803F042
:1016000094FA044610B9029BAB4206D001A806F03A
:1016100048F820462DB0BDE8F08343463A463146AF
:1016200001A8FFF761FF044601A806F03AF8F0E7C9
:101630000C7F000008B50B6801330B60014B1B6881
:10164000984708BD345700202DE9F84F81468A4657
:1016500015469B460A9B002B05DD4FF001080A2624
:101660000027214C13E001230A93F6E7B5FBF4F0C1
:1016700051463030C84708F101080127013EB5FB4B
:10168000F4F304FB1355194BA3FB0434E408092CB1
:1016900014D9002FEAD1AC42E8D90A9B9E42EDDC76
:1016A000BBF1020FEAD8BBF1010F05D02020514653
:1016B000C84708F10108E1E73020F8E7514605F195
:1016C0003000C847BBF1030F01D0BDE8F88F0A9B7B
:1016D000A3EB080808F1FF34B8F1000FF5DD51461F
:1016E0002020C847A046F5E700CA9A3BCDCCCCCC19
:1016F000014B1860704700BF3457002000B583B01D
:1017000002460B460021019101A9034803F004FCA5
:1017100003B05DF804FB00BF351600004FF0200257
:10172000EFF3118382F31188BFF36F8F044A012115
:10173000C2F8401583F31188BFF36F8F0020704704
:10174000009003502DE9F04383B080460F461646C3
:10175000124B1B6898470546002400E00134104BEB
:10176000104A9B1AB4EB231F14DA0E4800EB041046
:1017700043685B79002BF1D023010A4AD358D3F890
:101780000490B9F1000FE9D000963B462A46414645
:10179000C847E3E703B0BDE8F08300BF3857002037
:1017A000047E0000F47D000008B5044B044A1A6072
:1017B0004FF4004000F00AFA08BD00BF385700207F
:1017C00081520000054B064A9B1AB1EBD30F02D29F
:1017D00052F8310070470020704700BFF47D0000D0
:1017E000C47D000008B50B4BC31A1B1101334268BE
:1017F000137143681960436801225A71064B1B78C4
:101800001BB1054B01221A7008BD044802F0E2FC2E
:10181000F7E700BFF47D00002427002010580020C7
:1018200038B5134BD3E8EF2F511CC3E8E01F002855
:10183000F8D1DAB9002405E0042200212846FFF798
:10184000D1FF01340B4B0C4A9B1AB4EB231F0DDA6A
:10185000094D05EB04152B7B002BF2D02301064A22
:10186000D3585B69002BE7D09847E5E738BD00BF48
:1018700070250020047E0000F47D0000104B1B78D2
:1018800003B1704710B5FFF7CBFF002400E001342F
:101890000C4B0D4A9B1AB4EB231F0CDA0A4800EBE1
:1018A000041043685B79002BF1D02301064AD3581A
:1018B0001B699847EBE7024B01221A7010BD00BF6D
:1018C00025270020047E0000F47D00000EB400B542
:1018D00082B0014603AB53F8042B0193044803F094
:1018E0001BFB002002B05DF804EB03B0704700BFA3
:1018F000AF520000F0B585B011F0440F05D01A4B7F
:101900001C6834B9002005B0F0BD1849FFF7DEFFB0
:10191000F9E7174B1968B2FBF1F1B1FBF4F5154A81
:10192000A2FB0532D20A4FF4616606FB1256124B37
:10193000A3FB06735B0904FB15114FF47A7505FBD5
:1019400001F1B1FBF4F707FB141105FB01F1B1FB49
:10195000F4F402940197C3EB0311A6EB810100910B
:101960000649FFF7B3FFCEE7742500201883000077
:1019700078250020C5B3A291898888882483000037
:1019800061B108B52AB1064A52F8232012B9054AB6
:1019900000E0044A0449FFF799FF08BD704700BF03
:1019A0009C830000408300004883000011F0100F6A
:1019B0000BD108B511F0200F03D00449FFF786FFC3
:1019C00008BD0349FFF782FFFAE770470C85000066
:1019D0004C8300002DE9F04105460F461646984617
:1019E0000699FFF7E3FF0024444505DA234928461A
:1019F000FFF76CFF0134F7E7002409E01F49284690
:101A0000FFF764FF0BE01E492846FFF75FFF013434
:101A10000F2C0CDC002C02DD14F0070FEED0B442CA
:101A2000F1D23A5D17492846FFF750FFEFE7164914
:101A30002846FFF74BFF002409E010492846FFF72E
:101A400045FF0BE011492846FFF740FF01340F2CFA
:101A500012DC002C02DD14F0070FEED0B44206D2E7
:101A60003A5DA2F120035E2BECD92E22EAE703496E
:101A70002846FFF72BFFE9E7BDE8F08174830000FB
:101A800058830000508300005C83000060830000E6
:101A9000F8B5044616461D4649B9002786B101230C
:101AA000079A934013F0100F16D10C4E09E00C4B1F
:101AB000079A53F822200B49FFF708FF0746EDE786
:101AC000064E06992846FFF77DFE0246314620461F
:101AD000FFF7FCFE3844F8BD034EF2E764830000D4
:101AE000B0830000708300006C83000070B584B088
:101AF00005461E46C1F3C203C1F3891011F0070465
:101B00000FD1089B32462946104803F005FA94B9D4
:101B1000304603F0E6FB98B10D492846FFF7D6FEA4
:101B20000EE0029001930094134601220999284681
:101B300003F0FAFBE5E722460999284603F0E8FBA3
:101B4000284603F018FC04B070BD00BFAF5200007F
:101B5000788300002DE9F04784B007461D460C9EAF
:101B60000D9CDDF8388001F0070AC1F3C203C1F310
:101B7000891102910193CDF800A01346012241463C
:101B800003F0D2FB81462A460F493846FFF79EFEF6
:101B900074B12546102C28BF1025CDF800804B4687
:101BA0002A4631463846FFF715FF2E44641BEFE7FF
:101BB00052464146384603F0ABFB384603F0DBFBA8
:101BC00004B0BDE8F08700BF48830000074B012246
:101BD0001A60074B984205D94008044A13685B0015
:101BE0001360F6E7034B1860704700BF78250020AC
:101BF00040420F007425002008B5034802F05CF94C
:101C0000024B586008BD00BFC4830000842500203B
:101C100008B5024803F0AFFB08BD00BFF883000021
:101C200000B585B00F2002900798019006980090AB
:101C30000248FFF78FFF05B05DF804FBF883000052
:101C400000B583B00F200190049800900248FFF780
:101C50004DFF03B05DF804FBF883000010B40446A8
:101C60000023084A12689A4209DD1A0106490968E8
:101C700001EB03108A5CA24202D00133F1E700209D
:101C800010BC7047788400003C570020084B1B684C
:101C90003BB110B50C46FFF7E1FF28B120600020F2
:101CA00010BD6FF00C0070476FF00100F8E700BF47
:101CB0003C57002000B58BB003AB0093024B03F000
:101CC000B3FB0BB05DF804FBED53000010B5044608
:101CD0000A2807D0074B1868E1B243685B68984749
:101CE000204610BD034B186843685B680D21984778
:101CF000F0E700BF9025002010B5044C204600F00E
:101D0000B1FC2046FFF7F4FC10BD00BFCD1C000065
:101D100008B5044802F0D0F8034B1860FFF7ECFF59
:101D2000002008BDC48300009025002008B50121D3
:101D30004FF4807003F024FC28B100210A4803F01E
:101D40003FFC437A33B102214FF4827003F018FC58
:101D500028B908BD0021044803F0C3FCF3E70121C2
:101D6000014803F0BEFCF4E7B057002020F07F40AC
:101D7000014BC3F84005704700500150014BD3F8A8
:101D8000040570470050015070B50E4B0022C3F897
:101D900040214FF02003EFF3118683F31188BFF346
:101DA0006F8FFFF7EBFF084D2C68214603F028FDED
:101DB00004442C6086F31188BFF36F8F02F05EFA43
:101DC00070BD00BF00500150AC25002070B5154813
:101DD00002F072F810B34268126801219047124D68
:101DE0000024C5F808450126C5F840654FF4803346
:101DF000C5F804330D4B1C600D4B4FF40012C3F8B3
:101E0000802122463146152000F00AF9152000F005
:101E1000F7F8084B1E602E60204670BD4FF0FF3073
:101E2000FBE700BF7C84000000500150405101508E
:101E300000E100E008500150F8B5B0F1FF3F33D0A9
:101E4000441E284B9C4201DC002C2FDD254B9C427C
:101E500000DD254C4FF02003EFF3118683F311884A
:101E6000BFF36F8FFFF78AFF0546204B1F68394687
:101E700003F0C6FCB0F5000F00D300240444013485
:101E80006FF07F439C4200D3174C3C4429462046C8
:101E900003F0B6FC02280BD92046FFF767FF86F354
:101EA0001188BFF36F8FF8BD0F48C9E70024D1E751
:101EB0002046FFF75BFFFFF761FF0146204603F076
:101EC0009FFC421E0A4B9A4205D90A4B4FF400125E
:101ED000C3F80021E3E70128E1D1A01CFFF746FF8A
:101EE000DDE700BFFDFFFF00FEFFFF00AC25002087
:101EF000FEFF7F0000E100E010B54FF02003EFF39C
:101F0000118483F31188BFF36F8FFFF737FF044B02
:101F1000196803F075FC84F31188BFF36F8F10BD4F
:101F2000AC25002038B54FF02003EFF3118583F383
:101F30001188BFF36F8FFFF721FF054B1C68214607
:101F400003F05EFC204485F31188BFF36F8F38BD2A
:101F5000AC250020704700BF094A936858660949BC
:101F60000968996608494B6843F080534B60002329
:101F700083F31188BFF36F8F9368986E704700BF2B
:101F8000F82600204C87000000ED00E012498A6826
:101F90004FF028001044EFF3098C80E8F01F202058
:101FA00080F31188BFF36F8F0C4F4FF00066CA6942
:101FB0008A603E60506E0023536680F3118804B53A
:101FC000104603F052FCBDE8044002F1280090E8FE
:101FD000F01F8CF309887047F826002004ED00E01C
:101FE0001EF0040F0CBFEFF30880EFF30980816946
:101FF00011F8021C0229FFD001B503F00DFC01BD50
:1020000043B2002B08DB00F01F005B09012202FA3B
:1020100000F0024A42F82300704700BF00E100E0F0
:10202000013143B2002B08DB4901C9B203F160431F
:1020300003F5614383F80013704700F00F00490176
:10204000C9B2014B1954704714ED00E00149102248
:102050000A60704710ED00E0EFF30880EFF30981AC
:10206000724601B500F0DAF801BD00BF30BFFFF7DE
:10207000FDBF00BF08B5084B23F07F03074A9360FC
:10208000BFF34F8FBFF36F8F01F03EFF01F048FFAA
:1020900000F016F901F080FF0000000000ED00E004
:1020A00001B5EFF30580A0F110004FEAC00004492C
:1020B000014409C99847BDE80140024908470000AA
:1020C0002C7B0000551F000003F0D4F8202080F383
:1020D000118808484FF40061401880F30988EFF335
:1020E00014800221084380F31488BFF36F8FFFF739
:1020F000C1FF0000304F002010B514460F4B9A6A04
:102100009A6A9B6A13F0020F0BD00C4B5A6B9B6AB6
:1021100013F0800F05D021B1084A936A23F08003A1
:102120009362064B9A6A9A6A9A6A9A6A42F0FF0226
:102130009A6203F07DFB2070002010BD00ED00E0EE
:1021400010B51446124B9A6A9A6A9B6A13F4007F80
:102150000BD00F4B9A6B9B6A13F4004F05D021B143
:102160000B4A936A23F400439362094B9A6A9B6A71
:1021700013F4807F01D1064B9B6A054A936A43F4AE
:102180007F43936203F054FB2070002010BD00BF1A
:1021900000ED00E0074B9A6A9A6A9A6A9A6A9A6A0C
:1021A0009A6A9A6A9A6A6FEA02426FEA12429A62DD
:1021B0000020704700ED00E000230B70144BDA6A3A
:1021C00012F0020221D110B50446D86A10F0804006
:1021D00010D028331B7843B90E4B1B785BB90E4BDC
:1021E0001B889BB26BB9104604E00A4601212046C9
:1021F000FFF782FF10BD0A4601212046FFF7A0FF2E
:10220000F8E72046FFF7C6FFF4E70020704700BF5D
:1022100000ED00E029ED00E02AED00E070B58AB0A5
:102220000C46224B5968C1F30801002383F311883F
:10223000BFF36F8F02F07F43B3F17F4F15D102F0F0
:102240000C03082B14D012F0080F0BD000260DF150
:102250002702204603F0EEFA05469DF8273053B1D9
:102260000AB070BD04460126F1E700263446EEE7C9
:1022700000263446EBE72022214601A803F057FB55
:102280004EB1089BC3F308025AB96FEA53236FEAB1
:102290004323089305E0089B23F4FF7323F0010315
:1022A000089301A9284603F0B3FAD9E700ED00E04E
:1022B000024A536943F010035361704700ED00E098
:1022C000002206E002F00F01094B0B442021197691
:1022D0000132402A0ADC53B2002BF3DB03F16043E6
:1022E00003F56143202183F80013F1E7704700BF35
:1022F000FCEC00E038B504464FF02003EFF3118505
:1023000083F31188BFF36F8F01F00AFF0A4B9B68BC
:10231000A34203D0284605F06CFB38BD074B5B6831
:10232000C3F308032BB1054A536843F0805353604D
:10233000F0E72846FFF710FEF826002000ED00E049
:10234000014B024A1A63704790ED00E0AAFF440077
:1023500010B40B6823F01F020C7A04F01F031A4319
:10236000CB6823F01F03640943EA440343F00103ED
:1023700002498860CA600B6110BC704790ED00E0B4
:1023800010B50F2804D80446FFF7E2FF204610BD21
:102390004FF00004012363F302046FF3C504074BFD
:1023A000074A9B1AC3F3C90363F38F140246054916
:1023B000204602F069FF6FF01504E7E7D47D0000C6
:1023C000C47D0000E88400002DE9F04F87B080460E
:1023D0008B4601931446002660E0012363F302005C
:1023E0006FF3C5006B4B6C4A9B1AC3F3C90363F3CD
:1023F0008F103246694902F047FF6FF0150416E06E
:102400006FF0150567E04FF00000012363F3020051
:102410006FF3C5005F4B604A9B1AC3F3C90363F3B4
:102420008F102A465E4902F02FFF6FF015042046F8
:1024300007B0BDE8F08FBA4566D1E8B203F02DFAD7
:102440002BE0584AC2F808C0D36803F01F0320F0FD
:102450001F001843D06058F80910E0B203F01DFACD
:10246000044610F1160FE2D0013416E0013B4D494D
:10247000C1F808C00A6902F01F0223F01F031343CA
:102480000B6158F80910E0B203F007FA044610F1A6
:10249000160FCCD0013400E0013401365E45C6DAB7
:1024A0004FEA860958F826506F68002FF5D0019B37
:1024B00023B1284603F0DFF900288ED0D5F800A01C
:1024C000504603F009FA054607EB0A00013803F00D
:1024D00003FA854294D115F1160F94D0631EAB42D6
:1024E00091DBAC462F4B9D60DA6822F01F029D60A5
:1024F0001F6947F01F0758F809100B68486818440F
:1025000000F1FF3A934296D093429AD0BA45ADD0AB
:10251000013B24496546C1F808C00A6902F01F0260
:1025200023F01F0313430B6158F80910E0B203F0C6
:10253000B4F9044610F1160F3FF479AF0130194B8E
:102540009D60D9689DF8102061F304028DF8102079
:102550001B69C3F34203D2B263F347128DF8102014
:1025600058F80920116854682144029113682344E3
:1025700023F01F03A7EB0A071F44013F27F01F07A3
:10258000059702A9C0B2FFF7FBFE044610F1160F33
:1025900082D14CE7D47D0000C47D0000108500008E
:1025A0003485000090ED00E0F8B505460E46104B6E
:1025B0001F783B4604E00F4A936000241461013306
:1025C0000F2BF8DD00240AE00B4B04EB840203EB35
:1025D0008201043153F82200FFF7BAFE0134002CC7
:1025E000F2DD01233A4631462846FFF7EDFEF8BDFD
:1025F0002727002090ED00E0B0250020034B0522A6
:102600005A60BFF34F8FBFF36F8F704790ED00E0BC
:10261000BFF35F8F014B00225A60704790ED00E0DE
:1026200038B50E4B1D68102D15D8FFF7F1FFFFF7D9
:1026300087FE0024A54208D9084B596801EB041114
:102640002046FFF785FE0134F4E7054B1D70FFF7C8
:10265000D5FF002038BD4FF0FF30FBE76885000054
:1026600027270020014B1860704700BF405700200B
:102670000023072B3DD8F0B403F5A2721E4C54F88A
:10268000222012F0030F07D00133DBB2072BF3D95E
:102690006FF01200F0BC704703F14002920094B258
:1026A000154E03F5A27556F8252022F4473222F480
:1026B000407246F8252056F82570020202F4F852BE
:1026C000090401F440310A433A4346F8252004F155
:1026D000A04202F550420020106056F8252042F03A
:1026E000010246F82520012202FA03F3C6F804335A
:1026F000D0E76FF01200704700D0005010B4134BB9
:10270000D3F80443E4B2002300E00133072B1BD8C5
:1027100003F5A2720D4951F82220C2F3042290421F
:10272000F3D124FA03F212F0010FEED00A4603F5BA
:10273000A27051F8201021F0010142F8201001216F
:1027400001FA03F3C2F8083310BC704700D0005000
:1027500070B50C46866803689B681B7901F01F05FD
:1027600045EA43152846FFF7C9FF264A05F18001CF
:1027700052F8213023F4403342F82130B368E3406B
:1027800013F0010F39D0F368E34013F0010F36D096
:102790007369E34013F0010F18D0B369E34013F0FD
:1027A000010F0CD13369E34003F00102F36923FA0E
:1027B00004F404F00104A24206D0012100E0032148
:1027C0002846FFF755FF19E00221F9E73169F3695F
:1027D000594021FA04F414F0010F0CD10321094AE5
:1027E000803552F8253023F4403343EA014342F860
:1027F0002530002002E00221F1E7002070BD00201A
:10280000FCE700BF002584502DE9F04F83B0074658
:102810001E46846803F47043B3F5A04F38D016DC2D
:10282000B3F5405F37D005DDB3F5804F0CD14FF0E5
:1028300002081BE093B3B3F5805F02D14FF00108AB
:1028400014E06FF01503A0E06FF015039DE0B3F501
:10285000404F26D0B3F5504F02D14FF0070805E0A6
:10286000B3F5E04F40F095804FF0050806F4407353
:10287000B3F5807F1BD0B3F5007F15D00023019303
:1028800006F0010BDA46012914D0D5B2A9463DE085
:102890004FF00308EAE74FF00408E7E74FF00008BD
:1028A000E4E74FF00608E1E701230193E8E703239B
:1028B0000193E5E74FF01F09002527E0A3680122F7
:1028C000AA4023EA02033DE0636901228A4023EA29
:1028D00002033FE0A36901228A4023EA020341E0A8
:1028E000236901228A4023EA020343E0E3690122CB
:1028F00002FA01F123EA0101E16129463846FFF7B6
:1029000027FF0346002840D10135EDB2A9453BD34E
:102910003B689B681A79294605F01F0343EA421376
:102920004BEA4A02019842EA800242EA08228033D6
:10293000194840F8232016F0020FBFD0A3680122E7
:10294000AA401343A36016F0200FBDD06369012293
:102950008A401343636116F0400FBBD0A369012284
:102960008A401343A36116F0040FB9D023690122F2
:102970008A401343236116F0800FB7D0E369012228
:1029800002FA01F11943B7E70023184603B0BDE886
:10299000F08F6FF01503F8E700258450F0B48568D8
:1029A00003689E68EA68AB6813406A69A9690A43CC
:1029B00023EA0203012200200FE04FF0020C114F26
:1029C000803157F8214024F4403444EA0C4447F85D
:1029D000214023EA02030130520083B11A42FAD0A7
:1029E000347900F01F0141EA44112C69EF697C4001
:1029F000C44014F0010FE0D14FF0030CDFE7F0BC4E
:102A0000704700BF00258450F0B4816803689F6858
:102A1000CB688A6813404A698869024323EA020343
:102A20003A681069CA6950400A69504023EA0000B8
:102A30000122002401E0013452008BB11342FAD08C
:102A40003D7904F01F0141EA4511064E803156F8E8
:102A5000215025F4403546F8215023EA0203EAE7E5
:102A6000F0BC704700258450F0B583B0002301937B
:102A70002E4B1C680CB9002108E02D48FFF7C4FF5D
:102A800001902A4B00221A60F5E70131072925D869
:102A900001F140039B009AB201238B402548D0F8F6
:102AA00004030342F1D002F1A04303F550431B6835
:102AB000002BEAD001F5A2731E4850F82300C0F3A2
:102AC0000420012303FA00F0019B0343019302F168
:102AD000A04303F5504300221A60D6E7019E16B9C1
:102AE000FCB903B0F0BD124B9F68396819B10D46AF
:102AF00049B10D6807E00D4605E085B12B4605B1EB
:102B00002B6829461D460029EAD08B683340FA68B5
:102B10001342F2D04B68324605489847EDE72B4602
:102B2000EFE70348FFF73AFFDBE700BF7CD1005037
:102B3000F857002000D0005008B50B4B1B780BB1A4
:102B4000002008BD084B01221A70002205210D202B
:102B5000FFF766FA0D20FFF753FA044B4FF00042DF
:102B6000C3F80423ECE700BF2827002000D0005062
:102B7000034BD3F8003413F0010FF9D0704700BFB6
:102B800000900350024B0B6001231360704700BF9D
:102B9000E425002010B504F0D4FE034C206004F0BE
:102BA000CCFE6060002010BDE425002003689B6817
:102BB0001A68B1F5164F6FD03AD8B1F5165F6ED0DE
:102BC0000AD9B1F5E14F75D024D947F612239942BD
:102BD0002BD14FF4000313E0B1F5966F61D007D904
:102BE000B1F5166F63D0B1F5965F10D13C4B07E09D
:102BF000B1F5967F58D0B1F5167F05D14FF41C334F
:102C0000C2F82435002070476FF0150070476FF050
:102C100015007047B1F5615F4ED0B1F5964F01D107
:102C2000304BEDE76FF0150070476FF015007047FF
:102C3000B1F5613F42D009D9B1F5612F46D01FD916
:102C4000294B994248D14FF08053D9E7B1F5963FCF
:102C500037D005D9B1F5E13F0FD14FF0EB73CFE796
:102C60004DF6C02399422ED0B1F5614F02D14FF4F9
:102C70006B03C5E76FF0150070476FF015007047E4
:102C80001A4B994225D0B1F5E12F02D14FF0E863FC
:102C9000B6E76FF0150070474FF41D03B0E7144B13
:102CA000AEE74FF49E23ABE74FF4A033A8E74FF411
:102CB0001D23A5E70F4BA3E70F4BA1E74FF06C7364
:102CC0009EE70E4B9CE74FF4650399E74FF0706366
:102CD00096E74FF0806393E76FF01500704700BFF1
:102CE00000B0130000A04E0040420F0090D003003F
:102CF0000050270000C0750000F03A0000903A0133
:102D0000F8B50C46164603689B681D6887680A6814
:102D100001239340294A93600B688033032142F8D2
:102D200023106368B3F1FF3F03D08033002142F8E2
:102D3000231022686368C5F80C25C5F81435A3680C
:102D4000B3F1FF3F18D0E368B3F1FF3F14D0012285
:102D500002FA03F3194A9360E3688033032142F8CF
:102D60002310A3688033002142F82310E268A3688F
:102D7000C5F80825C5F81035816802F0D7FFE0B91D
:102D80000823C5F800356368B3F1FF3F0AD000237C
:102D9000C5F8103107F10C03C5F834350123C5F827
:102DA00038352B604EB1BB689B68C5F844350023AD
:102DB000C5F848350123AB60EB60F8BD00258450B1
:102DC00030B585B005460A4B6C460FCB84E80F0042
:102DD000002201210820FFF723F90820FFF710F94E
:102DE000012221462846FFF78BFF05B030BD00BF0A
:102DF000047E00000268124B9A4215D1C269A3F109
:102E00001023A3F1EF139A4210D18368012B0FD83E
:102E1000C36813B1026993420CD0436963B18269FC
:102E200093420BD00020704701207047012070476B
:102E30000120704701207047002070470120704733
:102E400055AA00FF70B5114B9D68B5B12846FFF734
:102E5000D1FF064698B9EB6813B10126304670BD24
:102E60002C69002CFAD02046FFF7C4FF48B9E3686C
:102E7000AB4208D125462469F3E70126EEE7012697
:102E8000ECE70126EAE70126E8E700BF0C26002070
:102E9000002800F0928038B50546484B1B68002B8F
:102EA0006CD0464A9268002A68D0834204D8434ACC
:102EB00052681344834203D8414B1B680120984752
:102EC000A5F120042046FFF795FF18B13C4B1B6885
:102ED0000120984755F8183C012B03D0384B1B684C
:102EE00001209847002345F8183C55F8143CCBB115
:102EF0009A68002A43D155F81C2C59680A4420329C
:102F00005A6055F8143C55F8102C1A6155F8145CA9
:102F10002B6903B1DD6020220021204602F02BFD49
:102F200023462C4625691DB3AA680ABB6B686268F4
:102F30001344203363602B69236163690BB323B3AC
:102F4000A2699A61A3690BB162695A616B69636195
:102F5000AA69A261EBB19C61A36903B15C612369B9
:102F600003B1DC6020220021284602F004FD2B463C
:102F700093B1124B1B6913F0020F15D138BD00231A
:102F8000D0E7A269002ADAD1E0E7A2690B4BDA6048
:102F9000D8E70A4BDC60DFE7084BDB68A36103B1CD
:102FA0005C61064BDC60E4E7FFF74CFF0028E5D0EE
:102FB000034B1B6801209847E0E770470C26002070
:102FC0006857002070B54F4BDC681D68002D5AD043
:102FD0009D68002D57D001FB00F6002800F0888086
:102FE000002900F08780B6FBF0F0884240F0848032
:102FF00016F1040F00F2828016F0030F08D026F0BD
:103000000305043534B16368AB4203D2A469F9E720
:103010003546F7E7002C73D0A3681BB13A4B1B6809
:10302000012098476268521B232A2ED905F12001FE
:103030006318203A5A6000229A60DC6022691A61A3
:10304000324860503249D96102B1D36062695A6135
:10305000A1699961002A3FD093619A6902B15361D5
:103060000122A2606560236100236361A361254B97
:103070001B6913F0010F32D104F120053246002103
:10308000284602F078FC284670BD0123A3606369DE
:10309000ABB1A2699A61A3690BB162695A6100235D
:1030A0006361A361174B1B6913F0010F0BD104F18E
:1030B000200532460021284602F05DFCE3E7A269C4
:1030C000104BDA60E7E7FFF7BDFE0028EFD00E4BAC
:1030D0001B6801209847EAE70A4AD360BDE7FFF77B
:1030E000B1FE0028C8D0084B1B6801209847C3E7F1
:1030F0000025C8E70025C6E70025C4E70025C2E78C
:103100002546C0E70C2600206857002055AA00FF7E
:10311000669911EE38B505460C4614220021134875
:1031200002F029FC1249134800F038F8232C1CD96E
:1031300015F0030304D01C44043CC3F104031D44F4
:1031400022460021284602F016FC084B1D605C60F8
:103150009D60203C6C609A68074911609A68A1F1F3
:103160001021A1F1EF11D161DA6038BD0C260020E9
:10317000912E0000C52F000055AA00FF08B5024B94
:103180001B68984708BD00BF6457002008B5024B74
:103190001B68984708BD00BF6C570020024B1860A1
:1031A000024B196000207047645700206C570020C4
:1031B00008B50A46024B1B680021984708BD00BFAE
:1031C00070570020F8B504460D46476800F1080620
:1031D000304603F06BFA874251D16368B3F5807FC4
:1031E0004FD80021304603F061FC00282ADD002181
:1031F000304603F033FA28B3CDB104F12C06002198
:10320000304603F053FC00281EDD0021304603F059
:1032100025FAC8B104F138060021304603F046FC17
:10322000002811DD0021304603F018FA60B10021BA
:1032300004F1140003F03AFC002824DD35B9ADB9DF
:103240002846F8BD124DFBE7114DF9E7002104F1C6
:10325000440003F02BFC002806DD002104F150009F
:1032600003F024FC0028EADC094DE9E7002104F121
:103270005C0003F01BFC002807DD0025E0E7044D9F
:10328000DEE7034DDCE7024DDAE7014DD8E700BF8A
:1032900080BFFFFF70B5044600221146FFF792FF82
:1032A000E0B9064604F10805284603F0E8F97F284E
:1032B00016D914340021204603F0D0F960B120461D
:1032C00003F0DDF9012807D92946204603F0A6FBC3
:1032D000002801DA304670BD024EFBE7014EF9E7E7
:1032E000004EF7E700BEFFFFF0B587B004460D467D
:1032F000164600221146FFF765FF98BB03A803F0AE
:103300001CF96268294603A803F0D6F9054630B1D6
:1033100003A803F018F915BB284607B0F0BD04F167
:103320000805294603A803F079FB002802DB6FF0AB
:103330000305EDE7676804F1680300932B4604F189
:10334000140203A9084603F014FF05460028DFD144
:103350003A46314603A803F0DEF90546D8E7A5F55D
:103360008545D9E7004DD7E780BFFFFF0023036005
:1033700043600B46B9B9194A8260194AC260194ABA
:103380000261194A4261194A8261194AC261194AA5
:10339000026202F17452A2F52302A2F69242426244
:1033A000836600207047144A8260144AC26002F1AA
:1033B000794202F5740202F501620261104A42612B
:1033C000104A826102F1D14202F5C01202F51E627A
:1033D000C2610D4A02620D4A4262E1E767E6096A8C
:1033E00085AE67BB72F36E3C3AF54FA57F520E5126
:1033F0008C68059BABD9831FD89E05C107D57C3649
:1034000039590EF7310BC0FFA78FF964A44FFABEEC
:103410002DE9F04FD1B00790002306E09A1C50F838
:10342000222008AC44F823200133072BF6D90022D0
:103430000F2A11D811F8224001EB820043781B04B7
:1034400043EA0463847843EA0423C078034310A862
:1034500040F822300132EBE74FF0000E42E10F9BC3
:103460000C9E4FEAF62181EAB61181EA7661194491
:103470000E9C0D9884EA0003334063401944DFF842
:10348000348758F82E3019440DF1400C5CF82E307A
:103490001944089D4FEA753A8AEAB50A8AEAB55A8C
:1034A000099F05EA07030A9A45EA070902EA09099A
:1034B00043EA09039A440B9B01EB030951444FEA89
:1034C000F92383EAB91383EA79631C4486EA00038B
:1034D00009EA030343401C440EF1010A58F82A305C
:1034E0001C445CF82A301C444FEA713383EAB10370
:1034F00083EAB15305EA010A45EA010B07EA0B0B1F
:103500004AEA0B0A534422441C444FEAF22383EA5A
:10351000B21383EA7263184486EA090313407340C6
:1035200018440EF1020A58F82A3018445CF82A3080
:1035300018444FEA743383EAB40383EAB45301EACC
:10354000040A41EA040B05EA0B0B4AEA0B0A53444E
:10355000074418444FEAF72383EAB71383EA7763F3
:103560001E4489EA02033B4089EA03031E440EF12C
:10357000030A58F82A301E445CF82A301E444FEAE9
:10358000703383EAB00383EAB05304EA000A44EAE2
:10359000000B01EA0B0B4AEA0B0A534435441E4464
:1035A0004FEAF52383EAB51383EA7563994482EA07
:1035B00007032B40534099440EF1040A58F82A306F
:1035C0004B445CF82A904B444FEA763989EAB609B5
:1035D00089EAB65900EA060A40EA060B04EA0B0B30
:1035E0004AEA0B0AD14419440F914B440B934FEA1A
:1035F000F12989EAB11989EA71694A4487EA05091A
:1036000001EA090987EA090991440EF1050A58F807
:103610002A204A445CF82A904A444FEA733A8AEADC
:10362000B30A8AEAB35A06EA030946EA030B00EA38
:103630000B0B49EA0B09CA4404EB0209CDF8389098
:1036400052440A924FEAF92484EAB91484EA79646C
:10365000274485EA010409EA04046C403C440EF165
:10366000060A58F82A703C445CF82A703C444FEA39
:10367000723787EAB20787EAB25703EA020A43EAD7
:10368000020B06EA0B0B4AEA0B0A574420440D9042
:103690003C4409944FEAF02787EAB01787EA70673D
:1036A0003D4481EA090900EA090981EA090129443E
:1036B0000EF1070058F8205029445CF8200001441E
:1036C0004FEA743080EAB40080EAB45002EA04059C
:1036D000224313402B4303440E440C960B4408939F
:1036E0000EF1080EBEF10F0F7FF6B9AE10263F2E79
:1036F00000F24D820F9A0C9B4FEAF32787EAB3172B
:1037000087EA73673A440E980D9D80EA05071F40CB
:1037100047403A44DFF89CB45BF826701744B31E68
:103720001A4610AB049253F822204FEAF24484EA7E
:10373000724484EA9224F21F53F822201444A6F122
:103740000F0A53F82AC04FEABC4282EAFC1282EA0E
:10375000DC021444A6F1100253F82220224443F85C
:1037600026203A4408994FEA713C8CEAB10C8CEA65
:10377000B15E099F3C460C400A990091089941EAC4
:10378000070C009901EA0C0C44EA0C0CF4440B9C65
:10379000144462444FEAF42888EAB41888EA74684A
:1037A00080440C9981EA050904EA090985EA0909B6
:1037B000C844711C5BF821008044701E059053F8CA
:1037C00020004FEAF04C8CEA704C8CEA902CB01F31
:1037D00053F820008444A6F10E0E53F82E904FEAC1
:1037E000B94080EAF91080EAD900604453F82A9081
:1037F0004844029143F8210008EB00094FEA72386F
:1038000088EAB20888EAB258089901EA020041EA57
:10381000020C019707EA0C0C40EA0C0CC444009817
:1038200000EB0908E1444FEAF82080EAB81080EA8A
:10383000786005440C9981EA040008EA00004840D9
:103840000544B01C01465BF82000054453F82600EF
:103850004FEAF04C8CEA704C8CEA902C701F53F8B5
:1038600020008444A6F10D0A53F82A004FEAB04024
:1038700053F82A7080EAF71080EAD700604453F8C2
:103880002EC06044039143F8210005444FEA793C7F
:103890008CEAB90C8CEAB95C02EA090042EA090E2A
:1038A000089901EA0E0E40EA0E008444019F07EBDE
:1038B000050E05EB0C0700974FEAFE2080EABE10CC
:1038C00080EA7E600C990D1884EA08010EEA010175
:1038D00061406818F71C5BF827100144029D53F8FB
:1038E00025004FEAF04585EA704585EA9025301FAE
:1038F00053F8200005440195A6F10C0C53F82C0058
:103900004FEAB04053F82C5080EAF51080EAD50019
:10391000019D284453F82A502844069743F827006D
:10392000014400984FEA7035074685EAB00585EAFC
:10393000B05509EA000049EA070A02EA0A0A40EA21
:103940000A000544089800EB010A294401914FEA56
:10395000FA2585EABA1585EA7A652C4488EA0E05C7
:103960000AEA050588EA05052544341D02945BF83A
:1039700024000544039953F821404FEAF44080EABB
:10398000744080EA9420F41E53F824402044A6F1A9
:103990000B0753F827104FEAB14484EAF11484EA84
:1039A000D104044453F82C002044029943F8210028
:1039B000054401994FEA713C8CEAB10C8CEAB15C88
:1039C000009804460C4001460198084309EA0000AB
:1039D000204360442A440F9228440B904FEAF22C73
:1039E0008CEAB21C8CEA726CC4448EEA0A08039218
:1039F00002EA08088EEA0808C444741D21465BF8F0
:103A00002440A444069D53F825504FEAF54484EA27
:103A1000754484EA9524049A53F822502C44A6F164
:103A20000A0853F828204FEAB24585EAF21585EADC
:103A3000D205254453F827402C44049143F82140F3
:103A400064444FEA703787EAB00787EAB0570199B4
:103A500001EA000541EA000C009901EA0C0C45EA74
:103A60000C052F4409EB040CCDF838C03C440A94F3
:103A70004FEAFC2787EABC1787EA7C677744039DF7
:103A80008AEA050E0CEA0E0E8AEA0E0E774406F15B
:103A900006095BF829502F44029D53F825504FEA40
:103AA000F54E8EEA754E8EEA952E059A53F8225001
:103AB000AE44A6F10902029253F8225029464FEA79
:103AC000B54585EAF11585EAD105754453F828E036
:103AD000754443F829502F444FEA743585EAB405FC
:103AE00085EAB45500EA040940EA040E019A02EAA4
:103AF0000E0E49EA0E09A9440099CD190D954F44BF
:103B000009974FEAF52E8EEAB51E8EEA756ED644F9
:103B1000039A82EA0C0C05EA0C0C82EA0C0272444D
:103B200006F107085BF8285002EB050E049953F8DC
:103B300021504FEAF54282EA754282EA952253F813
:103B400026100A44A6F1080553F825C04FEABC45E3
:103B500085EAFC1585EADC052A44029D53F82550C8
:103B60002A4443F8282072444FEA773383EAB703A4
:103B700083EAB75304EA070527433840284318442B
:103B8000019911440C91104408900836AFE50023C8
:103B9000079809E008AA52F82340991C50F8212000
:103BA000224440F821200133072BF3D9002051B0E3
:103BB000BDE8F08F38860000084B1B68084A126881
:103BC000092B01D000207047012A03D0022A03D11B
:103BD0000120704701207047002070473001FF002E
:103BE0003401FF00064B1B68064A1268092B01D0FE
:103BF00000207047012A01D0002070470120704743
:103C00003001FF003401FF00064B1B68064A1268B2
:103C1000092B01D000207047022A01D000207047F4
:103C2000012070473001FF003401FF00064B1B6884
:103C3000064A1268092B01D000207047012A01D0E2
:103C400000207047012070473001FF003401FF0061
:103C5000084B1B68084A1268092B01D000207047E6
:103C6000012A03D0022A03D10120704701207047A6
:103C7000002070473001FF003401FF00044B1B6A35
:103C8000B3F1FF3F01D0002070470120704700BF13
:103C90000080FF00044BDB6913F0010F01D100200D
:103CA00070470120704700BF0080FF00014B024AAF
:103CB0001A607047745700200090D00308B5FFF7D2
:103CC0007BFF30B14FF050230022C3F81421C3F81A
:103CD0001821FFF787FF30B10123424A1360A2F693
:103CE0003822C2F87835FFF78FFF18B13E4B01221A
:103CF000C3F87825FFF79AFF10B13C4B0E221A60EB
:103D0000FFF7A6FF28B13A4B00221A6004330122C4
:103D10001A6000220BE002F160034FF47F0151F8BA
:103D20003310DB0003F57F035B680B600132FF2A71
:103D300008D802F160034FF47F0151F83330B3F13A
:103D4000FF3FE8D1FFF7A6FF60B9FFF797FF48B93B
:103D5000284AD2F88C3043F44063C2F88C30FFF725
:103D6000A5FF08BD244BD3F80034012BFAD1224B18
:103D70000122C3F80425204BD3F80034012BFAD1DB
:103D8000FFF788FF48B11D4AD36923F00103D361CF
:103D9000194BD3F80034012BFAD1FFF76FFF58B15C
:103DA000164A136A23F0FF0343F020031362124BF9
:103DB000D3F80034012BFAD10F4B0022C3F80425AD
:103DC0000D4BD3F80034012BFAD1BFF34F8F0949C3
:103DD000CA6802F4E0620A4B1343CB60BFF34F8F13
:103DE00000BFFDE7384A005000400050E4AE0350E9
:103DF0000C47005000ED00E0009003500080FF00F1
:103E00000400FA05024B0022C3F80425704700BFE6
:103E100000900350024B0122C3F80425704700BFF5
:103E200000900350024B0222C3F80425704700BFE4
:103E300000900350044BD3F8083413F0010FF9D06D
:103E40000160BFF35F8F70470090035010B50446C8
:103E500003F057FD08B9084810BDFFF7E3FF4FF026
:103E6000FF332360054BD3F8003413F0010FF9D072
:103E7000FFF7C8FF0248EFE70A00AD0B00900350C0
:103E80000000AD0B38B505460A4B53F8204000E062
:103E90000C346B1C074A52F82330A34208D923681C
:103EA0005B68204698470028F2D000236360EFE764
:103EB00038BD00BF3887000038B50546104C00E01B
:103EC0000C34104B9C4208D06368002BF8D0236858
:103ED0001B68AB42F4D1204638BD094C00E00C34DD
:103EE000084B9C420AD06368002BF8D023681968FD
:103EF000284601F0FBFC0028F1D1ECE70024EAE7BA
:103F0000805700201058002008B50348034A121AB1
:103F1000002101F030FD08BD000000202C2700200A
:103F200008B50648064A121A064901F000FD064A7D
:103F30000649074801F0FBFC08BD00BF30570020D0
:103F4000345800209487000000000000948700008F
:103F50000000002008B50B4B01221A700220FFF769
:103F600091FF094A09490A4801F075F90320FFF752
:103F700089FFFCF765FA074A137B23F001031373EB
:103F800008BD00BF2927002068830000508700007B
:103F9000688700008C26002008B5FDF705FC164B4D
:103FA00083F30888154CE02384F822300025E57758
:103FB00025766576A576636A43F4E0236362FEF7AF
:103FC00077F9FEF743F84FF0FF33A362E362284628
:103FD000FFF758FF0120FFF755FF2A4629462846DC
:103FE000FFF7B8FF4FF02002EFF3118382F311883F
:103FF000BFF36F8FFEE700BF3057002000ED00E0F9
:1040000010B5064C0020064B9C4206D2204603F019
:10401000BAFC002801DB1C34F5E710BD1058002065
:10402000105800200A4B834208D04A680B6813607E
:104030004A685A6000230B604B607047203B9B68C6
:104040008B42F2D14B7B13F01F0FEED0F5E700BF90
:104050001827002010B504460C4803F0D8FC03468E
:1040600070B184B90A4A9268517B11F01F0F0AD1CE
:10407000996941B907498A4205D0054BDA6104E0E4
:10408000034BDB68EDE7024AD36110BD182700201F
:10409000F82600202026002070B5054600234FF0AA
:1040A0002002EFF3118682F31188BFF36F8F1CE0BB
:1040B00063686B602C6063681D60656009E00024C4
:1040C00019E0164B03F120022A605A6A6A601560F3
:1040D0005D626B7B63F07F036B730020FFF7BAFFB9
:1040E00086F31188BFF36F8F0123B3B90B4B53F8DD
:1040F000204F9C42E3D0002CE3D02146284603F019
:104100005BFC0028D4D1002CDBD0044B5B6A9C42C2
:10411000D7D02468002CEED1D3E770BDF82600205C
:1041200038B50446036D03B1984704F1180003F055
:10413000D1FC00234FF02002EFF3118582F31188A8
:10414000BFF36F8F16E012F0010F27D013F0800F2E
:104150001BD11B4B9868A04214BF00200120FFF721
:1041600079FF637B43F00803637385F31188BFF322
:104170006F8F01231A460BBB637B13F01F0FE2D135
:10418000A1690029DFD10122DDE721460D48FFF7B3
:1041900049FF637B03F07F036373DAE713F0020FD9
:1041A000DFD0204603F006FC2146FFF73BFF637B90
:1041B00023F0020363730023A360D2E738BD00BF7E
:1041C000F826002018270020014B9868704700BF90
:1041D000F826002070B505464FF02003EFF3118656
:1041E00083F31188BFF36F8F03F018FCB8B1044656
:1041F000437B13F01F0F05D183690BB1002302E04D
:10420000012300E0002333B90023A36631460948A7
:1042100003F0DCFB70BD2046FFF73EFFF4E7AB6820
:10422000EA68934203D001221344AB60EEE7002218
:10423000FAE700BF20270020034B1868984200D0FF
:1042400070470020FCE700BF7857002030B1044AD7
:104250005268904201D0006870470020704700BF4C
:104260007857002008B5044B1B680BB1002008BD2F
:10427000FDF742FEFBE700BF2027002070B54FF09E
:104280002003EFF3118583F31188BFF36F8F234B66
:104290001860FFF7D1FF044620B382681F4B1B68EC
:1042A0009A421FDC1E4ED6E90001801841EBE271F4
:1042B000C6E900019B1A194A13600023A360204637
:1042C00003F0E7FB85F31188BFF36F8FE3682046A7
:1042D00098474FF02003EFF3118583F31188BFF364
:1042E0006F8FD6E724B1A3680C4A12689B1AA360AB
:1042F0000B480A490C68D0E90023121943EBE47318
:10430000C0E9002300240C6003F0D5FB2146FDF733
:1043100093FD85F31188BFF36F8F70BD20270020B8
:104320000000002010B5054C054B9C4204D22046ED
:1043300003F0EEFB1C34F7E7002010BD10580020FE
:104340001058002070B582B0044601A90079FCF72E
:1043500005F9A568019B1D4423681C892E194FF09F
:104360002002EFF3118382F31188BFF36F8F01F006
:1043700046FA2B5983F308887368984702B070BDDA
:1043800019B1012903D106207047022070476FF050
:1043900015007047FF20704770B516461D4601F0A6
:1043A0006BF850B90021A94205D2745CFF2C06D1EC
:1043B0000131C9B2F7E7012001E04FF0FF3070BDD5
:1043C00008B5006A01F0D5F808BD2DE9F04182B0CA
:1043D00006460C4617460020FFF7D2FF01A9C0B2DF
:1043E000FDF754FC40B14FF00108019801F043F88B
:1043F000404602B0BDE8F0812C2303FB04631D8915
:10440000DB681D4404236A462946019801F034F80C
:10441000804640BB2C2101FB04646489BDF8002068
:1044200046F608139A420CD004BBBDF8002046F6AD
:1044300007139A421DD12544BDF802301D443D604A
:10444000D3E7BDF802108C4202D04FF00308CCE74E
:1044500004236A462944019801F00EF80028E4D0AC
:104460004FF00108C1E74FF00108BEE74FF0030825
:10447000BBE74FF00308B8E7F0B583B007460C463A
:104480000020FFF77DFF01A9C0B2FDF7FFFBD0B907
:1044900006460198FFF77EFF0546019800F0EBFF06
:1044A0002C2101FB04710023032B05D8CA5C954223
:1044B00007D10133DBB2F7E701233BB1304603B04C
:1044C000F0BD0023F9E74FF0FF36F7E74FF0FF3676
:1044D000F4E710B582B00346084680220192022913
:1044E00005D006290ED11A6D03F1540402E05A6A70
:1044F00003F1280401A9FDF7DDFB08B9019B236046
:1045000002B010BD0120FBE738B504460221FFF7D9
:10451000E0FF10B10125284638BD06212046FFF7EF
:10452000D8FF054608B10125F5E72046FFF748FF0B
:10453000E065F0E7F8B505460F4616460024012C65
:1045400010DC33462C2202FB045221462846FCF79D
:104550007BFB034608B90134F1E7002C03DD17B9F2
:10456000002300E000231846F8BD70B505460E464E
:104570000020FCF743FE0446022805D0042803D09F
:10458000032801D0204670BD324601212846FCF7A1
:1045900049F8012803D00028F4D00524F2E70446A6
:1045A000F0E7002383718360C360012343710360DC
:1045B0000371C37170474379012B01D0002070470C
:1045C0000368012B01D0002070470379012B01D033
:1045D000002070470120704738B50546FCF782F887
:1045E00095F85840E31EDBB2012B0DD9022C03D005
:1045F000042C01D0032C06D1002000F0D8F810B113
:10460000FF2385F8583038BD002000F0E3F800287B
:10461000ECD0FF2485F85840EAE770B584B0044632
:104620000E4603A90220FDF731FB30B101240398A7
:1046300000F021FF204604B070BD039800F06AF935
:104640000546E16D304600F0E5F82C18039800F0BF
:1046500090FF05460398FFF79DFE0146082201A83A
:1046600001F089F933798DF804302B4601AA2146EF
:10467000039800F020FF04460028D8D00124D6E794
:1046800008B500F048FF08BD2DE9F04706460F4683
:1046900000210846FFF774FE044601210020FFF7C1
:1046A0006FFE3B789C4223D0984223D10123994648
:1046B0002C2202FB03639C6A013CF06D00F017F9A9
:1046C000804600252C2303FB09635B6A03EBC402CD
:1046D000D2F804A053F834101B685246C91A384661
:1046E000FFF7CEFF013C5544A845EBD8BDE8F08765
:1046F0000023DCE70120F9E730B583B00C4615460E
:104700006946062000F072F9E97901290DD19DF87A
:104710000330012B0ED0A968204600F0B7F92046DF
:10472000FCF75EFD002003B030BD0022204600F003
:104730009BF9ECE7204600F090F9ECE770B582B009
:1047400006460D46FCF7B6FB0446E86060B3022857
:1047500029D101A90220FDF799FA08B1012423E02B
:104760002A4631460198FCF7CBFA044618B1019865
:1047700000F081FE18E0019800F0D5F80146012311
:104780000DF103020198FFF707FE012806D09DF8FE
:10479000033003F00F03EB710446E8E701238DF8C3
:1047A00003302046F3E70724204602B070BD10B561
:1047B00082B001A90220FDF769FA18B10124204650
:1047C00002B010BD019800F041F90446019800F0D4
:1047D00052FEF4E710B584B003A90220FDF756FAA3
:1047E00018B10124204604B010BD01A9039800F0BF
:1047F0009DF8044660B99DF80730032B03D0039859
:1048000000F039FEEEE7039800F027F90446F6E7DA
:104810000124F4E730B44379012B10D0022201FBCC
:1048200002F4012B0DD0CD010379013B0268013A5E
:1048300002FB04F201FB0321481930BC704701223E
:10484000EDE70025F0E7012800D170470220FCE7E2
:104850002DE9F04383B00646884617461C4600F013
:1048600088FE082C20D80546082802D94FF0FF30D2
:104870001CE03046FFF78EFD8146A54200D225465A
:1048800022463946684601F052F82A1B49460DEB8C
:10489000040001F070F82B466A464146304600F0AD
:1048A0000AFE18B1012001E04FF0FF3003B0BDE86F
:1048B000F08300B583B08DF80420012301AAFFF72F
:1048C000C7FF03B05DF804FB04280AD0052803D114
:1048D000481E18BF01207047884214BF00200120E5
:1048E00070470120704700EB4000C001704708B5D9
:1048F000FFF7F9FF303008BD0B78022B07D0062BED
:1049000002D14FF4C07070474FF0FF3070474FF442
:10491000C070704710B5044600F02BFEFFF7E7FFAC
:10492000A368181A10BD80682838704730B587B062
:1049300005460C468168102302AA1039FFF72CFDAA
:1049400000284ADB01283CD1032323702846FFF7C7
:10495000EAFF014601230DF107022846FFF71CFD7F
:1049600000283DDB9DF8073003F00F0262701B0941
:104970002371012801D0042A03D901236370002385
:104980002371A9680123A21C20392846FFF704FDE2
:10499000002827DB012819D0A078FFF754FFA0706A
:1049A000A9680123E21C18392846FFF7F5FC002806
:1049B0001ADB01280DD0E078FFF745FFE0700020FA
:1049C0000CE002A8FCF7CAFB2070BFE70323A3702A
:1049D000E6E70323E370002000E0012007B030BDCC
:1049E0000120FBE70120F9E70120F7E710B582B0CD
:1049F0000C4601A9C0B2FDF749F918B101242046BF
:104A000002B010BD21460198FFF790FF04460198BF
:104A100000F031FDF3E730B583B00C4601A9FCF797
:104A2000A9FB054610B1284603B030BD019D2846BC
:104A3000FFF779FF04232246A0F10801284600F081
:104A40001BFD0546019800F016FDECE708B58168EE
:104A500001222039FFF72DFF08BD08B5816801222A
:104A60001839FFF726FF08BD10B582B0044641EAA9
:104A700002118DF80710FFF756FF014601230DF1D3
:104A800007022046FFF7E4FE02B010BD10B582B069
:104A900004460191FFF747FF04230DEB0302A0F149
:104AA00008012046FFF7D4FE02B010BD2DE9F04307
:104AB0009DB015469946249FDDF89480279C01A857
:104AC00002F027FE002101A8FEF750FC14B1289B3C
:104AD000002B06DC2B89EE6833446E891E440025CA
:104AE00013E01A46214601A802F019FEF2E7234618
:104AF0003A462946484600F0BFFC034688B922469C
:104B0000394601A802F00BFE2544B54204D2741BBD
:104B10004445ECD94446EAE7269901A802F042FE52
:104B2000002318461DB0BDE8F0832DE9F04184B0A4
:104B300004460E461546302303AA2946304601F0A6
:104B400098FAA8BB3368039A1344AB4233D104F1FB
:104B500008073A462946304601F09EFA28BB04F180
:104B6000140842462946304601F096FAE8B938461C
:104B700001F09CFD60603368AB421FD1CDF804802A
:104B80000022009213463946204602F03DFDC0B98E
:104B90002046FEF77FFB0546B0B9384601F086FD9A
:104BA0006060284604B0BDE8F0816FF00205F8E7C8
:104BB0004FF0FF35F5E76FF00105F2E76FF0030501
:104BC000EFE76FF00405ECE76FF00505E9E7F0B5F6
:104BD000A5B006460F4600230893DF2407E02546CC
:104BE0002A466946304600F0A2FE2E44641B002C83
:104BF0001DDD09A802F08DFD002109A8FEF7B6FB16
:104C00002022394609A802F08AFD042208A909A831
:104C100002F085FD694609A802F0C4FD9DF8233025
:104C200001338DF823301F2CD9DD2025D8E725B09E
:104C3000F0BD2DE9F04383B000284AD00C4617465A
:104C400099460646002947D0002A48D00D89CB68EE
:104C50001D4404230DEB03022946384600F00CFCEA
:104C6000804600283ED1BDF8042046F608139A423B
:104C70001ED06389002B3BD1BDF8042046F60713F4
:104C80009A4238D134607760A6F808909DF82830B1
:104C9000B37263892B44F36063892B44BDF806200B
:104CA0001344736104353561404603B0BDE8F083B9
:104CB0006389BDF806108B4217D104230DEB030264
:104CC0002944384600F0D8FB0028D5D04FF0FF38F3
:104CD000EAE74FF0FF38E7E74FF0FF38E4E74FF03F
:104CE000FF38E1E74FF0FF38DEE74FF0FF38DBE752
:104CF0004FF0FF38D8E74FF0FF38D5E700284DD008
:104D0000F0B583B00F4616461D4604460368002BD7
:104D100048D043680BBB4FF0FF313AE004230DEB62
:104D200003022169606800F0A7FB014600283CD11E
:104D3000A37A1BB12269E3689A4239D223894FF6DC
:104D4000FF72934217D0BDF80420934213D0BDF8F0
:104D50000600236918440430206120696369984281
:104D60001AD223685B89002BD8D0E3688342D5D15F
:104D700004302061D2E715B1BDF804302B802369DF
:104D800004333B60BDF8063033802269134404339A
:104D90002361084603B0F0BD0121FAE74FF0FF316F
:104DA000084670474FF0FF31F3E74FF0FF31F0E76F
:104DB0000121EEE7006801FB02007047F8B50446E8
:104DC0000789406800FB07F726683E44FF23E3722B
:104DD00000220BE0E36843F80C601F3119D449113D
:104DE00006EB8106800820F003000132A37A93428B
:104DF00011DDB7FBF0F1E36802EB42054FEA850CE9
:104E000003EB85031D1D5D609D602029E2D8E272E1
:104E1000E8E71F31E3E700250CE02A4661682046F9
:104E2000FFF7C8FFE3681A1D02609A6842601060CD
:104E3000986001352389AB42EFDCF8BD0020704754
:104E400038B504460D464520A04729465220A047C4
:104E500029465220A04738BD2DE9F04F83B0814646
:104E60008A4690461D469DF83030019300264FF04B
:104E7000100B3746402407E009282AD9572351460A
:104E80001844C84701360127032C33DD043CC4F124
:104E90002002A4F1200328FA04F005FA02F21043DC
:104EA00025FA03F3184310F00F00E5D1002FE3D1EA
:104EB000002CE1D00BF1FF3300930D9B9B4516DCDA
:104EC000019B012B07D0019B022B0AD0DDF800B01B
:104ED000DAE73023D3E751463020C847DDF800B089
:104EE000D2E751462020C847DDF800B0CCE7DDF816
:104EF00000B0C9E7019B032B02D003B0BDE8F08FDF
:104F00000D9BC6EB430603E051462020C8472646CA
:104F1000741E002EF8DCF0E72DE9F04F87B007464D
:104F20000E46144605934FF000084FF0FF39C24675
:104F3000454602E03146B84701342078002800F0A9
:104F4000878145B92528F5D14FF000084FF0FF398A
:104F5000C2460125F0E70246A0F12503552B00F2D9
:104F60006981DFE813F0620167016701670167018A
:104F70006701670167016F016701670156005D0006
:104F80005D005D005D005D005D005D005D005D0039
:104F900067016701670167016701670167016701D1
:104FA00067016701670167016701670167016701C1
:104FB00067016701670167016701670167016701B1
:104FC0006701670167016701670167010C016701FC
:104FD0006701670167016701670167016701670191
:104FE00067015A018A0067016701670170008A0042
:104FF00067016701700067016701670102016701CE
:1050000067013A016701CF00670167010C01670181
:105010007000B9F1000F03DABAF1000F00F015814A
:10502000B9F1000F0CDB09EB890902EB4909A9F181
:105030003009BAF1000F7FF47FAF4FF0020A7BE72F
:10504000A2F13009F5E768280CD06C2810D0B8F12F
:10505000000F0BD031462520B84731462078B8479D
:10506000002569E7B8F1680FEFD14820804663E773
:10507000B8F16C0FEBD14C20F8E7B8F17A0F0AD0F9
:10508000B8F16C0F17D0B8F14C0F19D0059B1A1D51
:1050900005921D6803E0059B1A1D05921D68002DF1
:1050A00029DBCDF8009053462A4631463846FCF7B6
:1050B000CBFA002540E7059B1A1D05921D68EEE717
:1050C000059B073323F0070303F1080205921D68CF
:1050D0005B6815F10042029243F100030393DDE99E
:1050E0000223012B08BF002AD9D331463846FFF7E7
:1050F000A7FE002520E731462D20B8476D4209F173
:10510000FF39CEE7B8F17A0F0AD0B8F16C0F14D09E
:10511000B8F14C0F16D0059B1A1D05921A6803E0D2
:10512000059B1A1D05921A68CDF80090534631462A
:105130003846FCF789FA0025FEE6059B1A1D059204
:105140001A68F1E7059B073323F0070303F1080210
:105150000592D3E90023012B08BF002AE4D331468E
:105160003846FFF76DFE0025E6E631463020B847A9
:1051700031467820B8474FF008094FF0010A2378EC
:10518000702B0BD0B8F16C0F17D0B8F14C0F1AD0B0
:10519000059B1A1D05921A68002304E0059B1A1D41
:1051A00005921A680023CDF80490CDF800A031468E
:1051B0003846FFF751FE0025BEE6059B1A1D0592F5
:1051C0001A680023EFE7059B073323F0070303F179
:1051D000080205921A685B68E5E7059B1A1D0592AF
:1051E000D3F800B05D4602E001353146B847287873
:1051F0000028F9D1BAF1030F01D000259CE6A5EBF8
:105200000B03A9EB030303E031462020B8472B46EC
:105210005D1E002BF8DC00258EE6059B1A1D05920D
:1052200031461868B847002586E631462520B8473C
:10523000002581E631462520B84731462078B84719
:10524000002579E64FF0030A76E64FF0010A73E68F
:1052500007B0BDE8F08F0FB400B583B004A951F8D2
:10526000040B0191FCF74AFA03B05DF804EB04B0BB
:105270007047704708B5FEF721FD08BD0020704754
:1052800008B5FCF74FFE08BD0EB400B582B003AA06
:1052900052F8041B0192FCF755FA02B05DF804EBDA
:1052A00003B0704708B5FCF7BBFA002008BD00B595
:1052B00083B001900B684A685268012101A89847A1
:1052C000002003B05DF804FBF8B507460D46144610
:1052D0001E46324621462846B8470544241AF8D1CE
:1052E000F8BD0022037813B101301A46FAE70A2A02
:1052F00014BF00200120704708B513460122FCF7B7
:105300003FFB08BD08B513460022FCF739FB08BD7A
:1053100038B505460C4601F00101FFF7F3FF2146C1
:105320002846FCF743FB38BD2DE9F04383B0044623
:1053300015469DF8286001F00109C1F3C00811F07D
:10534000020713D1324649462046FFF7D5FF0196A2
:10535000BDF8303000939DF82C302A464146204657
:10536000FCF796FB384403B0BDE8F0831A46FCF71F
:10537000C1FA0746E6E710B504464268536812686A
:1053800081680068FFF7A0FF636800221A6010BD03
:10539000F8B507460E4615460024B44206D2395DDC
:1053A0006B685B68284698470134F6E73046F8BDDD
:1053B00000684B6898420BD310B48C682344984221
:1053C00009D208694B69984209D2002010BC704785
:1053D000012010707047002313700120F6E76FF072
:1053E0000B038B61002313700120EFE770B582B0CF
:1053F00005460C46CE680DF10702FFF7D9FF80B9CC
:105400002B68616822695B1A46F83230236906EB23
:10541000C3066B687360236901332361012002B006
:1054200070BD9DF80700FAE7F8B50D4617461E4611
:10543000069C2060FCF712FCB8B143686360836887
:10544000A360E760002222612B686361A261C068EB
:10545000FEF732FD60B12246314600F01CFCA36924
:105460000BB923692B60A069F8BD6FF01500FBE74D
:105470006FF01200F8E77047F8B504460D4617467E
:105480001E4683688B4204D3721893420ED20023C7
:1054900000E0002363B1E068FEF70EFD6168294477
:1054A00043681C6833463A46A047F8BD0123F1E73C
:1054B0006FF01500F9E72DE9F84305460E469146D1
:1054C0001F4683688B4204D37A1893421ED200236E
:1054D00000E00023E3B1E868FEF7EEFC0446436811
:1054E000DB6800219847804668B969683144636881
:1054F0005D683B464A462046A84780466368DB68AD
:105500000121204698474046BDE8F8830123E1E7A2
:105510006FF01508F7E72DE9F04105460E461746EE
:1055200083688B4204D30A4493421DD2002300E0D7
:105530000023DBB1E868FEF7BFFC04464368DB6884
:1055400000219847804660B96968314463689B6868
:105550003A462046984780466368DB68012120462A
:1055600098474046BDE8F0810123E2E76FF0150857
:10557000F7E708B5C068FEF79FFC4368187D08BDD3
:1055800000F150231A683AB14FF05022D2F80423A8
:10559000114207D0012200E0002210460AB1002289
:1055A0001A6070470022F8E74FF050230322C3F837
:1055B000082370474FF050230322C3F80423704799
:1055C000806801EB410100EB810070470368986837
:1055D00000EB0110704708B5C9B2FFF7F1FF437A3D
:1055E0001BB9037A1BB9012008BD0220FCE700208B
:1055F000FAE7F8B50546CCB22146FFF7E7FF0646C5
:1056000021462846FFF7DCFF4FF02003EFF3118718
:1056100083F31188BFF36F8F037AE3B10446013B34
:10562000DBB20372D3B903604360736813B12846D9
:10563000984748B1F37A03F1502301221A60338965
:1056400003F1502300221A600020607287F3118852
:10565000BFF36F8FF8BD6FF04400F7E70020F5E768
:1056600003688B4205D033B11B68002BF9D10020B1
:10567000704701207047002070474FF02003EFF380
:10568000118283F31188BFF36F8F00230B6043688F
:1056900033B11960416082F31188BFF36F8F704797
:1056A00041600160F7E703464FF02001EFF31182FC
:1056B00081F31188BFF36F8F006868B110B401687F
:1056C00019605C68A04205D082F31188BFF36F8F28
:1056D00010BC70475960F7E782F31188BFF36F8FF2
:1056E000704738B50546FFF76BFF04460123437248
:1056F0002046FFF7D8FF034620B15A68996828462C
:105700009047F5E738BD2DE9F04780461546CFB202
:105710003946FFF75BFF814639464046FFF750FFA9
:10572000064625B12946FFF79BFF00283ED14FF0E2
:105730002002EFF3118382F31188BFF36F8F347A65
:105740000134E4B2347283F31188BFF36F8F7DB1FB
:10575000FFF72AFF96F809A0BAF1000F0DD0FFF766
:1057600029FFBAF1000F03D06B68A968404698473B
:10577000012C07D00020BDE8F08729463046FFF70E
:105780007CFFECE7D9F8003013B14046984738B1B8
:1057900099F80A3003F1502301221A600020EAE749
:1057A00039464046FFF79DFF0020E4E76FF00F0009
:1057B000E1E708B50022FFF7A6FF08BD38B50546AA
:1057C000002201210520FCF72BFC0520FCF718FC2A
:1057D0004FF050230222C3F81825FFF7EBFE0024F8
:1057E00008E021462846FFF7EBFE002303604360F4
:1057F0000134E4B2012CF4D9002038BD7047704761
:10580000401A20F07F40704708B5FCF725FC08BD22
:1058100008B502F0AAF808BD08B501460068FFF710
:10582000F7FF08BD08B5FCF721FCFCF793FB08BDAA
:105830000020704708B500231370CB1E032B12D82D
:10584000DFE803F002060A0E1146FCF7B5FC08BDBE
:105850000021FCF751FCFAE70021FCF771FCF6E7A8
:10586000FCF798FCF3E70020F1E708B50021684653
:1058700000F02EF808BD43681F2B0AD913F01F0F44
:1058800001D000207047036813F01F0F03D00020E1
:105890007047002070470120704730B585B00B6815
:1058A00000934C680D899DF8082065F30402897AFD
:1058B00061F347128DF8082023F01F032344013BB6
:1058C00023F01F0303936946FCF75AFD05B030BD72
:1058D00008B5FCF769FE08BD40E800F010F4803F11
:1058E00001D0C0B270476FF01500704703780A7896
:1058F000934203D113B101300131F7E7981A704791
:105900007AB1531E0FD010B404780A78944203D1B0
:1059100001300131013BF7D100780B78C01A10BC7F
:1059200070470020704700780B78C01A704710B499
:1059300080EA010313F0030F01D0034617E003468A
:1059400013F0030F0BD0A2B111F8014B03F8014B78
:10595000013AF5E751F8044B43F8044B043A032AA3
:10596000F8D804E011F8014B03F8014B013A002A82
:10597000F8D110BC704710B4CCB2034613F0030F3B
:1059800004D09AB103F8014B013AF7E7C9B241EAF2
:10599000012141EA0141032A06D943F8041B043AD4
:1059A000F9E703F8014B013A002AFAD110BC70471D
:1059B0004FF0FF30704710B40468A4682468806812
:1059C00001290FD0003B18BF0123C169D14001F06C
:1059D00001018B420AD0012303FA02F2A2600020E7
:1059E00010BC7047C26953406360F8E7012303FAB3
:1059F00002F2E260F3E7F0B40446006880680568EC
:105A0000A6686F692C696868604038406040F46936
:105A10006040012906D0D04000F00100186000204D
:105A2000F0BC70471860FAE730B480680368DBB1F7
:105A30000D4600240AE00B6803604468A1420FD1C0
:105A400043600DE044600BE01C461B685BB19D4267
:105A5000FAD1002CEFD00B68236043689942F1D053
:105A600000230B6000E052B162B103680B6001607B
:105A700043680BB1002006E04160002003E06FF0B6
:105A8000150000E0002030BC70472DE9F0410646CB
:105A90001F468568012903D0D4B2A046002311E037
:105AA0004FF01F080024F9E7EA680123A34022EA27
:105AB0000302EA6021463046FCF74AFE034650B92D
:105AC0000134E4B2A04506D3002FEDD0EA680123EB
:105AD000A3401A43EDE71846BDE8F08108B501235D
